:020000040000FA
:060000000A128A110C280F
:10000800FE00030EF2000A08F3000A128A11022BFE
:100018000A128A110F280A128A113F250A128A1118
:10002800DD000A128A1140250A128A11DE000A121E
:100038008A1141250A128A11DF000A128A11422503
:100048000A128A11E0000A128A1143250A128A113B
:10005800F9008313203084003F300A128A112B25BF
:100068000A128A11F701F80183010A128A11462B34
:1000780083120313D5004B30CD004D08D100F4286E
:1000880025305606031949284A2856285608CD000F
:10009800550884004D08831380000130CD004D08B9
:1000A800D507F428D0015D28C030CD004D08D00414
:1000B80077280130CA07FF304A0784000A128A11DC
:1000C80038240A128A11D600CD00CE014E08003A13
:1000D80003196F28F4284D08003A03190629753AC0
:1000E80003195828F4285108840083130008D20003
:1000F800840A0008D3000230CD004D08D107D6018C
:10010800D60A5608CD004D07013E84000A128A110E
:1001180038240A128A11CE000A128A1138240A12C7
:100128008A11CF004F085302031D9C284E08520223
:1001380003189F28A028A128AB280130CD004D081E
:10014800D60705305606031DAA28AB288528560869
:10015800CD004D08D400EB280A30C6000030C70097
:100168005408CD004D07013E84000A128A11382434
:100178000A128A11BF000A128A1138240A128A1137
:10018800C0005308C2005208C1000A128A11762220
:100198000A128A11831203134008C9003F08C800D5
:1001A8000A128A1186230A128A1183120313460837
:1001B800303ECE004E08D6005608CD0055088400C3
:1001C8004D08831380000130CD004D08D507FF305E
:1001D800CD004D08D407540A031DF328F428B0288D
:1001E8000130CA07FF304A0784000A128A113824EE
:1001F8000A128A11CD004D08D6005608031D05299C
:1002080006294428550884008313800108001C30FF
:1002180083120313D7005708CA006008CC005F0890
:10022800CB002B300A128A113C200A128A110230A4
:1002380083120313D7005708C00002300A128A112C
:100248001E220A128A11831203132B080A128A111A
:10025800C2230A128A112E300A128A11C2230A12E4
:100268008A11831203132C080A128A11C2230A1254
:100278008A11831203132B080A128A1133250A12D2
:100288008A1156300A128A1133250A128A111C3033
:1002980083120313D7005708CA005E08CC005D0814
:1002A800CB002B300A128A113C200A128A1108301E
:1002B80083120313D7005708C00002300A128A11AC
:1002C8001E220A128A11831203132B080A128A119A
:1002D800C2230A128A112E300A128A11C2230A1264
:1002E8008A11831203132C080A128A11C2230A12D4
:1002F8008A11831203132B080A128A1133250A1252
:100308008A1156300A128A1133250A128A110D30C1
:1003180083120313D7005708C00002300A128A114B
:100328001E220A128A111C3083120313D7005708A1
:10033800CA002A08D800D9015808CB005908CC00AF
:100348002B300A128A113C200A128A112B30831290
:100358000313C2000030C3000A128A11BC220A1219
:100368008A11080000300A128A11B4240A128A116C
:10037800343083120313C100F130C000C00BC2290E
:10038800C10BC22903300A128A11D6240A128A1113
:100398000D3083120313C100FB30C000C00BD229FB
:1003A800C10BD22903300A128A11D6240A128A11E3
:1003B8001D3083120313C1009030C000C00BE22926
:1003C800C10BE229000003300A128A11D6240A124E
:1003D8008A11773083120313C000C00BF129023051
:1003E8000A128A11D6240A128A1102300A128A11B4
:1003F800D6240A128A1108300A128A11D6240A123F
:100408008A1100300A128A11D6240A128A110C3075
:100418000A128A11D6240A128A1100300A128A1185
:10042800D6240A128A1106300A128A11D6240A1210
:100438008A11080083120313C3004303031D252AEE
:10044800262A4B2A40087F3EC1004108C6004608BC
:10045800C10004300310C10CFF3E031D2E2A4108C1
:10046800C2004208C40046080F39C1004108C5004F
:1004780044080A128A11D6240A128A118312031315
:1004880045080A128A11D6240A128A11752A0230DE
:100498004306031D502A512A752A4008BF3EC10051
:1004A8004108C6004608C10004300310C10CFF3ED5
:1004B800031D592A4108C2004208C40046080F39E2
:1004C800C1004108C50044080A128A11D6240A123C
:1004D8008A118312031345080A128A11D6240A12B4
:1004E8008A11080083120313C401C5013F084004A0
:1004F80003197F2A802AB72AC301C30A8E2A01302A
:100508000310BF0DC00DFF3E031D842A0130F40007
:100518007408C307C01F912A922A832A0130031046
:10052800C40DC50DFF3E031D932A40084202031D5A
:100538009F2A3F084102031CA22AA32AAA2A3F088D
:10054800C1024008031CC203C20244140130031054
:10055800C00CBF0CFF3E031DAB2A0130C302031DB4
:10056800B62AB72A922A4508C0004408BF000800E6
:1005780083120313C701C801E52A47084207C500CB
:100588004308C4000318C40AC71FCB2AC403831234
:1005980003134408C6004608FF00450884000A12F1
:1005A8008A112E240A128A110A128A11C2230A12E7
:1005B8008A11013083120313C7070318C80A0030D1
:1005C800C80747084207C5004308C4000318C40AFF
:1005D800C71FEF2AC403831203134408C600460842
:1005E800FF00450884000A128A112E240A128A1173
:1005F800003A031D002B012BC12A080083120313A4
:100608008C1E072B082B102B8C121A08F000F101F6
:100618007008F7007108F8000C1F132B142B3F2BE0
:100628000C1303307906031D1A2B1B2B2B2B1E08CA
:10063800F000F1017008DF007108E0000230F000FE
:100648007008F90003105F0DDF00600DE000043052
:100658007906031D302B312B3F2B1E08F000F101CA
:100668007008DD007108DE00F901F90A03105D0D5C
:10067800DD005E0DDE0073088A00720E8300FE0E38
:100688007E0E09000A128A115C240A128A110A12C3
:100698008A1189240A128A110A128A1100250A125B
:1006A8008A1183120313C001C00A01300A128A1189
:1006B8001E220A128A110B3083120313C2008030E3
:1006C800C3000A128A11BC220A128A110A128A115C
:1006D8000B210A128A110A128A11FB230A128A11A3
:1006E800063083120313DC001330DB00AD30DA0070
:1006F800DA0B7C2BDB0B7C2BDC0B7C2B4B2B0A12B9
:100708008A110C28831203134608470403198D2BFA
:100718008E2BBD2BF601F60A9C2B01300310C60D5B
:10072800C70DFF3E031D922B0130F5007508F60733
:10073800C71F9F2BA02B912B47084902031DA62BEF
:1007480046084802031CA92BAA2BB02B4608C8024E
:100758004708031CC903C90201300310C70CC60CA3
:10076800FF3E031DB12B0130F602031DBC2BBD2B30
:10077800A02B4908C7004808C600080083120313C5
:10078800C10041080F39F5007508BF004108F0396C
:10079800F5007508C00008154008F500043003107E
:1007A800F50CFF3E031DD32B75080A128A11B424D9
:1007B8000A128A118312031388151A30F500F50BF3
:1007C800E32B00008312031388113F080A128A11D1
:1007D800B4240A128A118312031388151A30F500FB
:1007E800F50BF42B000083120313881108002B303B
:1007F80077067804031D012C022C0A2C0130F50021
:10080800750883120313AA07F701F8012D3077063C
:100818007804031D102C112C172C0130831203139C
:10082800AA02F701F80143300A128A1133250A1285
:100838008A11831203132A080A128A1133250A120D
:100848008A1183120313981C2A2C2B2C2D2C181276
:1008580018160800FF1B382C83137F18831700080D
:10086800840A0319FF0A080004308A000408840A6D
:1008780082070034013400340A340034643400340C
:10088800E83403341034273450344F3454345F344C
:100898003134203450344F3454345F3432342034BB
:1008A80043344F344E3454340034253475340034D2
:1008B8008316031388010330850007138717033055
:1008C80083160317880089010A128A11B6210A12B1
:1008D8008A110A128A1118250A128A110A128A1113
:1008E800F0240A128A118B170B17831603130C179F
:1008F800831203130C13831603138C16831203132A
:100908008C12831603130C1208007903031D8D2C17
:100918008E2C972C831203131F101F111F140330E2
:10092800F4007408F90002307906031D9C2C9D2CF4
:10093800A62C831203131F101F151F140430F40074
:100948007408F900831203139F18AB2CAC2CB32C3A
:100958000D30F400F40BAE2C831203139F1408001F
:10096800F400741CB82CB92CBD2C83120313081680
:10097800C02C831203130812F41CC32CC42CC62CDD
:100988008816C72C8812741DCA2CCB2CCD2C08179E
:10099800CE2C0813F41DD12CD22CD42C8817D52C8E
:1009A8008813080083120313BF0008113F080A12B6
:1009B8008A11B4240A128A118312031388150B3082
:1009C800F6006230F500F50BE72CF60BE72C00007B
:1009D80083120313881108000A128A110D250A12BE
:1009E8008A110A128A113A250A128A110A128A11E0
:1009F80022250A128A11080000300A128A11D62408
:100A08000A128A1101300A128A11D6240A128A118E
:100A1800080083120313181683160313181283127F
:100A280003139817181308008130831203139F00CB
:100A3800831603139F131F129F1208000C3083168E
:100A4800031399001811831603178711080064000F
:100A58008001840A04060319003404062C2DF400CE
:100A6800831203130C1274089900080083160313E9
:100A7800981618130800FA3400340F34003401347F
:04400E00F72FFF3F4A
:00000001FF
